:020000022000DC
:10300000000001205DF4020085F4020087F4020054
:1030100089F402008BF402008DF40200000000002D
:103020000000000000000000000000008FF402001B
:1030300091F402000000000093F4020095F40200F5
:10304000D565020097F402008172020097F4020035
:1030500097F4020097F402009D6902004574020093
:1030600097F4020097F4020097F4020097F402002C
:1030700097F4020097F4020097F4020097F402001C
:1030800097F402000135020097F4020097F4020061
:10309000A135020097F4020005FA020097F402003D
:1030A00097F4020097F402001D7E020097F40200DC
:1030B0003D7C020097F402000000000000000000C8
:1030C00097F4020097F4020097F4020097F40200CC
:1030D00097F4020097F4020097F402000000000049
:1030E00000000000000000000000000000000000E0
:1030F00000000000000000000000000000000000D0
:1031000000000000000000000000000000000000BF
:1031100000000000000000000000000000000000AF
:10312000000000000000000000000000000000009F
:10313000000000000000000000000000000000008F
:10314000000000000000000000000000000000007F
:10315000000000000000000000000000000000006F
:10316000000000000000000000000000000000005F
:10317000000000000000000000000000000000004F
:10318000000000000000000000000000000000003F
:10319000000000000000000000000000000000002F
:1031A000000000000000000000000000000000001F
:1031B000000000000000000000000000000000000F
:1031C00000000000000000000000000000000000FF
:1031D00000000000000000000000000000000000EF
:1031E00000000000000000000000000000000000DF
:1031F00000000000000000000000000000000000CF
:1032000010B5054C237833B9044B13B10448AFF320
:1032100000800123237010BD602B002000000000FF
:10322000680A0300084B10B51BB108490848AFF302
:1032300000800848036803B910BD074B002BFBD082
:10324000BDE81040184700BF00000000642B0020BC
:10325000680A0300482B002000000000154B002BDB
:1032600008BF134B9D46A3F5803A00218B460F46BD
:103270001348144A121A0CF0E1FC0F4B002B00D03B
:1032800098470E4B002B00D09847002000210400E7
:103290000D000D48002802D00C48AFF300800CF060
:1032A0008DFC2000290005F02DFD0CF073FC00BF03
:1032B00000000800000001200000000000000000E5
:1032C000602B00202C3800200000000000000000CF
:1032D0002DE9F84F244B1A788AB3DFF890B0DFF865
:1032E0009090DFF890A00024012703E00134E4B2BD
:1032F000944224D226B2D9F80050DBF8003015F8F9
:10330000360007FA00FE1EEA030F05EBC608EDD0F3
:10331000164A23EA0E03136003F036FB15F8365005
:10332000DAF8003007FA05F6334000FA05F6B34242
:1033300007D00D4B01341A78E4B29442DAD3BDE8D9
:10334000F88FD8F80430002BF3D098F80110A1F1D1
:103350000101B1FA81F14909091AB1FA81F149096A
:1033600028469847E5E700BF842B0020AC2B0020BF
:10337000802B0020A82B002070B50646114800F0D5
:103380005FFD40B9104D01242B68B4401C4203D0AE
:1033900023EA04042C6070BD304603F0F5FA0B4AB2
:1033A000136860B123432E680949136034432C60CD
:1033B000044809680022BDE8704000F0EBBC23EA35
:1033C0000403F0E7882B0020AC2B0020A82B002062
:1033D0007C2B0020042A01D8072070472DE9F041FA
:1033E00082B088460546174603F09AF9002834D083
:1033F0001C4C1D481D491E4A1E4B2560002608F125
:10340000FF340F6080F8008016601E60E4B203276E
:10341000B8F1000F03D11AE0DBB2C4B11C4623B2ED
:1034200005EBC30215F833009378134A8DF8053085
:1034300001A98DF804708DF806608DF8076003F01F
:1034400079F9631E0028E7D002B0BDE8F0810B4A8D
:103450000B48002100F08CFCF6E703F01FF9002870
:10346000C6D0F1E7802B0020842B00207C2B00208D
:10347000A82B0020AC2B002079330200D1320200AF
:103480008408030070B5084D2B785BB1074E00240B
:103490003368012113F8340003F014FA2B78013457
:1034A000A342F5D8002070BD842B0020802B002083
:1034B00000B585B000230390194601AA44F201002B
:1034C000ADF80430029300F003F805B05DF804FB9A
:1034D000084B1B68DB0700D5FFDEBFF34F8F0649A3
:1034E000064BCA6802F4E0621343CB60BFF34F8F10
:1034F00000BFFDE7F0ED00E000ED00E00400FA059C
:10350000F8B5204A204B0025C2F84051C2F844517A
:10351000C2F84851C2F84C51C2F80051C2F80451E7
:103520001B6813B31949D2F804250C68141B1A68D8
:1035300024F07F44A2422F4609D8197CDE69A41AE0
:10354000154499B91EB133461A68A242F5D9104BF9
:1035500010491A780B789A420DD00F490F4A41F85A
:1035600023504FF48013C2F80031F8BD1F745A691C
:1035700098699047E6E7531CDBB2022B08BF002393
:103580000B70EAE700100140B42B0020B02B0020A4
:10359000B82B0020B92B0020C82C002000E100E04F
:1035A0002DE9F04F884A89491378097899428BB000
:1035B00037D00133DBB2022B08BF002384491370DC
:1035C000844A0E68029152F82300834905910B68E2
:1035D00002993218002522F07F420A602C462946C3
:1035E000AE46ABB11A68824200F2E681DD68C3F8EC
:1035F00000E0801A1444DA6935B1371927F07F47A3
:10360000D9619D605F60194613460125002BE9D101
:10361000002D40F0DC820023069301230893069AD4
:1036200008E06D4B05931B68694A029200210693DE
:1036300008911A46694BDFF8AC811B780393029B13
:103640001F68059B1B68BA461C460F46002309935A
:10365000C3460793994618464FF0010E0193A446BE
:103660003FB37D68BE683946FF695D4BCAEB050410
:1036700024F07F449C423CD8A3190B6048608860CA
:1036800081F810E0C861002A68D015689D4249D2CF
:10369000164603E025689D4234D22646F4695B1B3A
:1036A000002CF7D1CC610B601446F1612246002F4B
:1036B000D7D198F8003098F80110994200F0948022
:1036C000591C03EB43039BF8024008EBC303C9B248
:1036D0008C421C798BF8001008BF8BF80070022C0C
:1036E00099684ED0032C3FD0012C24D0144622469A
:1036F000DDE7C5EB0A0525F07F45B54209D2731B0E
:103700000B60BBE7ED1A2560CC610B601446F161DC
:10371000CCE708604860886081F810E0C861EAB1D1
:1037200015680023EB1A0C4613608C46CA614FF0F3
:1037300001092246BBE70C7C0494002CD6D1DD683D
:103740004D601E698E605C69CC609B698B61039BD8
:10375000002B8AD0049B4B601D4686E70C468C46A6
:103760004FF001092246A2E70AB9BFE71A46D3691A
:103770001074002BFAD11C469C464FF001092246DA
:1037800095E752B1914200F00B81134602E0B1423D
:1037900007D03346DE69002EF9D11446087422465C
:1037A00085E7994200F0FE801446F5693668DD61D0
:1037B00015B12B6833442B60019B0874A24218BFDB
:1037C00001230193EBE700BFB82B0020B92B0020A9
:1037D000B02B0020C82C0020B42B0020BA2B0020D6
:1037E000FEFF7F00BC2B00205746DDF804A0B9F196
:1037F000000F40F04981079B002B40F0E581099BB9
:10380000002B40F0DC81BAF1000F03D1069B9A42F5
:1038100000F03F81002A00F041816C49029BD1F801
:1038200004051B686A4C17682578C21A22F07F428B
:103830000332002D51D1674DDFF89CC1DFF89CE1C8
:103840004FF48036C1F84463C1F804634FF4003686
:10385000C5F880612E6001250D60DCF800602F2125
:1038600000BF00BF00BF00BF00BF00BF00BF00BF60
:1038700076452FD000BF00BF00BF00BF00BF00BF14
:1038800000BF00BF00BF00BF00BF00BF00BF00BF40
:1038900000BF00BF00BF00BF00BF00BF00BF00BF30
:1038A00000BF00BF00BF00BF00BF00BF00BF00BF20
:1038B00000BF00BF00BF00BF00BF00BF00BF00BF10
:1038C00000BF00BF00BF00BF00BF00BF00BF00BF00
:1038D00000BF00BF0139C3D1257097422CBFDA1950
:1038E0009A183A4922F07F43C1F84035D1F80425AF
:1038F000121A1B1A22F07F4223F07F4303329A42AE
:1039000048D9D1F80435344AC1F8403512683349F2
:103910002F2300BF00BF00BF00BF00BF00BF00BF1C
:1039200000BF8A422FD000BF00BF00BF00BF00BF52
:1039300000BF00BF00BF00BF00BF00BF00BF00BF8F
:1039400000BF00BF00BF00BF00BF00BF00BF00BF7F
:1039500000BF00BF00BF00BF00BF00BF00BF00BF6F
:1039600000BF00BF00BF00BF00BF00BF00BF00BF5F
:1039700000BF00BF00BF00BF00BF00BF00BF00BF4F
:1039800000BF00BF00BF013BC3D1124B4FF4003258
:10399000C3F80021124A002313700BB0BDE8F08F6A
:1039A00016461346D2F81C90B9F1000F1AD0CC4637
:1039B0004C464FF00109F8E6002D62D1121A1A6048
:1039C000069301230893069A34E600BF00100140D5
:1039D000D02C002000E100E0D82A00200024F400D0
:1039E000BA2B00207B4C7C4DC4F808E07B4C4FF098
:1039F0002F0C246800BF00BF00BF00BF00BF00BF86
:103A000000BF00BFAC422FD000BF00BF00BF00BF4F
:103A100000BF00BF00BF00BF00BF00BF00BF00BFAE
:103A200000BF00BF00BF00BF00BF00BF00BF00BF9E
:103A300000BF00BF00BF00BF00BF00BF00BF00BF8E
:103A400000BF00BF00BF00BF00BF00BF00BF00BF7E
:103A500000BF00BF00BF00BF00BF00BF00BF00BF6E
:103A600000BF00BF00BF00BFBCF1010CC2D10124E8
:103A700025460994CC464C46CA4603950795A94667
:103A800093E6059C236099E7059B1946C1F800C0A1
:103A9000B1E6089B002B3FF47DAFBBE64D49504B90
:103AA0004E4E4D4C4FF480304FF400370125C3F893
:103AB0008070C1F848032F23C1F808034D603068B7
:103AC0001E4600BF00BF00BF00BF00BF00BF00BF59
:103AD00000BFA0422FD000BF00BF00BF00BF00BF8B
:103AE00000BF00BF00BF00BF00BF00BF00BF00BFDE
:103AF00000BF00BF00BF00BF00BF00BF00BF00BFCE
:103B000000BF00BF00BF00BF00BF00BF00BF00BFBD
:103B100000BF00BF00BF00BF00BF00BF00BF00BFAD
:103B200000BF00BF00BF00BF00BF00BF00BF00BF9D
:103B300000BF00BF00BF013EC3D18D6002990A6083
:103B400000BF00BF00BF00BF00BF00BF00BF00BF7D
:103B5000A0422FD000BF00BF00BF00BF00BF00BF0A
:103B600000BF00BF00BF00BF00BF00BF00BF00BF5D
:103B700000BF00BF00BF00BF00BF00BF00BF00BF4D
:103B800000BF00BF00BF00BF00BF00BF00BF00BF3D
:103B900000BF00BF00BF00BF00BF00BF00BF00BF2D
:103BA00000BF00BF00BF00BF00BF00BF00BF00BF1D
:103BB00000BF00BF013BC3D10A4B1A70EAE60A4BB3
:103BC0009DF80C1019701EE6029B1F6017E6059AFF
:103BD000136020E5001001400024F400D82A0020E2
:103BE00000E100E0D02C0020BA2B0020F0B4564BAE
:103BF000564A574E574C4FF480304FF40031012550
:103C0000C2F88010C3F848032F21C3F808035D6091
:103C100030680E4600BF00BF00BF00BF00BF00BF3E
:103C200000BF00BFA0422FD000BF00BF00BF00BF39
:103C300000BF00BF00BF00BF00BF00BF00BF00BF8C
:103C400000BF00BF00BF00BF00BF00BF00BF00BF7C
:103C500000BF00BF00BF00BF00BF00BF00BF00BF6C
:103C600000BF00BF00BF00BF00BF00BF00BF00BF5C
:103C700000BF00BF00BF00BF00BF00BF00BF00BF4C
:103C800000BF00BF00BF00BF013EC3D19D6000BFA9
:103C900000BF00BF00BF00BF00BF00BF00BFA04209
:103CA0002FD000BF00BF00BF00BF00BF00BF00BFDC
:103CB00000BF00BF00BF00BF00BF00BF00BF00BF0C
:103CC00000BF00BF00BF00BF00BF00BF00BF00BFFC
:103CD00000BF00BF00BF00BF00BF00BF00BF00BFEC
:103CE00000BF00BF00BF00BF00BF00BF00BF00BFDC
:103CF00000BF00BF00BF00BF00BF00BF00BF00BFCC
:103D000000BF0139C3D1144E144D154C1549164F3F
:103D100000203070286020704FF48015E0240B26BE
:103D2000087048708E7038701049C2F8805182F85F
:103D300014431560C3F8080582F81143D3F804351D
:103D40000B60F0BC704700BF0010014000E100E0D4
:103D5000D82A00200024F400D02C0020B42B00200E
:103D6000B82B0020BC2B0020B92B0020B02B00204A
:103D7000074B9B780BB9082070473AB130B1036804
:103D8000187C0028F7D159745A6170470720704792
:103D9000BC2B00202DE9F043264CA37883B01BB93F
:103DA000082003B0BDE8F0830028F9D0042903D827
:103DB000072003B0BDE8F0834369002BF0D006462E
:103DC00002A8737C0025012B00F8015D0CBF894619
:103DD000A94690460F4600F06FF86378A0782178E6
:103DE0005A1CD2B2904208BF2A4691421BD003EB24
:103DF000430304EBC30301200F4918719E60D1F8FF
:103E000004159DF80700D9601F61C3F81490C3F82A
:103E10001880627000F078F8084B4FF48012284642
:103E2000C3F80021BDE79DF8070000F06DF80420FD
:103E3000B7E700BFBC2B00200010014000E100E00C
:103E400070B51B4CA37882B013B9082002B070BDC6
:103E50000028FAD04369002BF7D0064602A80025B7
:103E600000F8015D357400F027F86278A0782178B9
:103E7000531CDBB2984208BF2B46994212D002EB8A
:103E8000420204EBC20202219DF807009660117104
:103E9000637000F039F8074B4FF480122846C3F8DE
:103EA0000021D3E79DF8070000F02EF80420CDE7AD
:103EB000BC2B002000E100E0F0B4EFF3108472B6F8
:103EC0000E4B9A68B2B90E4901259D60D1F88070F9
:103ED0000C4D2E463D401D60C1F88060D1F88450E5
:103EE0005D604FF0FF33C1F88430027004B962B6F0
:103EF000F0BC704701230370F8E700BF1C380020B6
:103F000000E100E0FC06FFBD094B9A6872B168B998
:103F100010B4EFF3108272B606491C680C605C683E
:103F20004C60986002B962B65DF8044B704700BF00
:103F30001C38002000E100E0033080B240F2FD3385
:103F4000984201D90920704730B4124B1C783CB913
:103F50005D891A892A44024492B2B2F5806F10D367
:103F60001A7C0C4C12B1072030BC7047258B628B39
:103F70002A44024492B2B2F5806FF4D20124224660
:103F800000E0224603EB02130C805A89104458814A
:103F90000020E9E7D42C0020F0B52C4C2C4F6368AE
:103FA000668883B0002B4AD036015A88B91903328B
:103FB000496803EB820201F58050824226D21368E1
:103FC000013318BF4FF6FF7520D09388AB4214D051
:103FD000138893B1626053881E4D1F48AE882968CC
:103FE000033300259BB200959B0001EB860103255E
:103FF000257001F0FBFD03B0F0BD5388033302EBE5
:104000008302824202D213680133DED13E44B38977
:104010006BB1104D104829680227052600230122A4
:10402000AF80267003B0BDE8F04001F017BE01225A
:10403000094801F013FE0423237003B0F0BD3601DC
:10404000BB19596801F10802B5E700BFF42C002044
:10405000D42C0020942D00204C2B0020F0B5436878
:104060008E464BB1304AD468A34205D312699342BD
:1040700002D813F0030236D000232C4EAEF80030E5
:104080004FF0010C4FF6FF757768002307F5805459
:10409000C3B15A88033203EB82039C4216D91A68D3
:1040A000013213D09A88AA42F3D01A88002AF0D09D
:1040B000026899689142EBD11D4A436013890381DC
:1040C0000120F0BD07F108039C42E8D80CF1010380
:1040D000AEF800C01FFA83FCBCF1030F06F1100616
:1040E000D2D10020F0BD124C05892489A542C3D14C
:1040F00005689C68A542BFD10C4C6068834205D915
:1041000000F58050834201D2134608E06269934271
:10411000E7D902F58052934238BF0123E1D2AEF8CD
:1041200000300120F0BD00BF4C2B0020D42C00201B
:10413000F42C0020B3F804C0BCF1010F54D82DE9D1
:10414000F043DFF8AC8091464FF6FF7700224FEA4C
:104150000C1408EB040E18F80440002C33D11C6832
:10416000002C3CD06588DEF80460033504EB850440
:1041700006F58056A64225D92568013522D0A588A6
:10418000BD4219D02588BDB11C6018B1A68805882C
:10419000AE42E5D119B126880D88AE42E0D1A268C1
:1041A000C9F800201A68114BC9F804201B89A9F826
:1041B00008300020BDE8F0836588033504EB8504F2
:1041C000B442D9D31A600CF1010C1FFA8CFCBCF17B
:1041D000020FA3F804C0BAD10A20BDE8F083DEF8CC
:1041E000046006F10804C3E70A207047F42C00209D
:1041F000D42C00202DE9F04FB74D2C6FE600331B77
:1042000089B015F823305A1E0746052A00F28C8221
:10421000DFE802F06344441E1E03002840F0E38000
:10422000DFF8C8E29EF80C30002B00F0BF829EF849
:1042300000308EF80C00013B062B00F27482DFE8A0
:1042400013F08E025A028601670172025E023F027B
:10425000002840F0C980C4EB060805EB8808DFF8A9
:1042600078A298F80490B9F1010F00F0F882C0F03C
:10427000E182B9F1020F41F61D5818BF4FF00F0847
:1042800041F61D52904538D04246013B0492052B21
:1042900042D8DFE803F0A47F689134A0321B05EB1D
:1042A0008202DFF84C82B2F8149008EB091900285A
:1042B00040F0A580B9F80870D9F80410927D01EBA0
:1042C0008707062A00F24183DFE812F05601A101B8
:1042D0008101E901D001B701B401002840F08780D5
:1042E000371B05EB87073B79032B00F22C83DFE8B4
:1042F00013F00301DC00CD009C000022C5E7341B55
:1043000005EB84040422E388ADF8183000238DF80F
:104310000C20ADF81A300593704C04F1100654F8D7
:10432000043B03A803B19847B442F8D1286F6A4C04
:10433000C0EBC00005EB80001C2200210BF07EFCCE
:104340006B6F43B1226F0132013B02F003026367DE
:104350002267002B63D1624A137823F004031370A1
:1043600009B0BDE8F08F341B05EB84040222A37D65
:104370002689A088E168ADF81860A3F10603B3FAB6
:1043800083F35B098DF81C30ADF81A0005918DF8A8
:104390000C20C1E7341B05EB840401222389A0888B
:1043A000E168ADF818300023ADF81A0005918DF8DA
:1043B0000C208DF81C30AFE7341B05EB840403237D
:1043C000E0882189E268ADF81800ADF81A1005926E
:1043D0008DF80C30A0E705238DF80C309CE7002306
:1043E0008DF80C3098E706234FF0010848E73C4968
:1043F0000A78012322F001020A70984640E7D0882B
:10440000B9F80A20B9F80810C71C121A3944033A3F
:10441000A9F80810A9F80A204FF0010830E7002099
:10442000FFF7E8FE09B0BDE8F08FDFF8C8802D4A3D
:10443000D8F800102C484FF000090823CDF8009060
:1044400001F0D4FB294B2A495B88D8F800E087F8B3
:1044500004901B01CA1801F803905368B8F80410BF
:10446000C8F800300223C2F804E01181A8F8043033
:1044700000283FF475AF331B15F8233018490A782C
:1044800022F001020A704FF00E08F9E6DFF86480AE
:104490001548D8F800100023012201F0DFFB0222AA
:1044A0000023A8F804203B71E2E7DFF8448098F885
:1044B0000030022B00F0458298F81030022B00F0FB
:1044C0002F82074A137843F0020323F0010313708D
:1044D00041F61D580123D3E6042D0020A42D002011
:1044E0009C2D0020940803004C2B0020F42C00206D
:1044F000D42C0020942D0020C44BC54A1968C5480F
:1045000000230093082301F071FB01233B71AFE707
:10451000C14BBEF80220C14F03EB02129389002B5E
:1045200000F0CE81B94BBB48196802229A8005225F
:104530003A700023012201F091FB8046B8F1000F90
:104540003FF40EAF1C2303FB04F3EB5C98E6DEF8AC
:104550000420AE48538887880168AE4801EB870184
:104560000333002700979BB203279B008EF800704F
:1045700001F03CFB8046E1E7C4EB06084FEA8808FF
:10458000002305EB080E3946009302270EF10402C2
:1045900004238EF816709F48A14F01F027FB0028D6
:1045A0003FF4DEAE17F808304FF00E08311B05EB74
:1045B0008101B9F80A20C888B9F80810C71C121A76
:1045C0003944033AA9F80810A9F80A2058E6C4EBC0
:1045D00006084FEA880805EB08031A4619698D4852
:1045E000DFF83CA2002907F108010CBF01270327CF
:1045F0009F75002300930C32042301F0F7FA002882
:104600003FF4AEAE1AF808304FF00E08CEE7C4EB18
:1046100006084FEA8808032B05EB080E4FF000034D
:1046200007F1040100930CBF052706270EF10802CD
:104630000423AEE741F61D58B8E77A4B7A4A1F8843
:1046400051687448794A00230093042301F0CEFA9C
:10465000002840F02C81341B05EB840508EB07187B
:1046600006220123AA7588F80E3079E6C4EB060805
:104670004FEA880805EB08026B4B92691A6069499A
:10468000DFF89CA1002218465A60FFF7E7FC0028DB
:104690007FF472AF1AF808304FF00A08F0E5C4EB67
:1046A00006084FEA880805EB080E0021BEF8063020
:1046B000DEF8102000919B0007F10C01012768E74C
:1046C000524B534A1968534800230093CEF80430E4
:1046D00007238EF80030082301F088FA80462DE782
:1046E0004A4ADEF80410938849880B4403330221B8
:1046F00093808EF80010FFF74FFC80461EE7BEF84F
:104700000230DFF814811B01984406200023D8F8FA
:104710000410474A00938EF8000008233D4801F03A
:1047200065FA80460AE706234FF00F08A8E53A4BE2
:10473000BEF808101A781B7CB2FA82F25209B3FA5A
:1047400083F35B09013100208EF80A2001228EF8E4
:104750000B30AEF808108EF80C008EF800209EF892
:104760000A302E4A43B12C498B89002090721BB924
:104770008A7B002A40F0CB809EF80B30274A43B159
:10478000254B998B0020D07219B99B7F002B40F0EC
:10479000BD80331B002215F823308EF80020AEF8C0
:1047A0000220CEF8042041F61D5869E59EF800303D
:1047B000072B3FF640AD01A252F823F02F4702002D
:1047C0003742020037420200E1460200E54702009C
:1047D000C1460200C1460200DD47020001238EF8F7
:1047E0000030BCE7BEF80230DFF82C80074A1B011E
:1047F00008EB030011684768B2F804C04160022169
:104800001760A0F808C091807EE700BF942D0020BB
:104810008C0803004C2B0020D42C0020F42C00200A
:10482000042D00207C2D0020802D0020880803000E
:1048300094080300D8F80C30049703A80DF10A017E
:1048400005970393FFF70AFC002845D14FF00A08AB
:10485000331B9B00EA180221EB5C117114E5444BF9
:104860001B789B0707D40146082242480BF0E6F963
:104870004FF0020866E6DFF8FCB008F106005B4680
:1048800003AA3946FFF756FC8046002860D10097FE
:104890000499394A3948BBF80470042301F0A6F999
:1048A000B8B9374B03EB071383F80E9058E5331B69
:1048B0009B00EA180621EB5C91754FF00E0875E637
:1048C00051682E48012201F0C9F9042380463B704B
:1048D00034E64FF00E0835E60499274A8B88A8F88D
:1048E0000630B1F800E0254800970423A8F808E056
:1048F000BDF80A7001F07AF978B9214B03EB071380
:1049000001210222997388F8042029E50123AEF8D9
:104910000230FFF741FB804610E64FF00E0897E7A4
:1049200001273F0108EB07034FF000095968154ABA
:10493000CDF800900823114801F058F908F80790C5
:1049400096E50027EDE7012398E54FF00F082DE6E7
:104950003946584608220BF071F91C2303FB04F377
:10496000B8F10A0F08BF41F61D581AF8033087E462
:104970009C2D00208C2D0020880803004C2B00204B
:10498000D42C0020940803002DE9F04FB74D476860
:104990002C6FE600331B89B015F823305A1E052A08
:1049A00000F28C82DFE802F06344441E1E03002FF5
:1049B00040F0E380DFF8C8E29EF80C30002B00F0F6
:1049C000BF829EF800308EF80C70013B062B00F27F
:1049D0007482DFE813F08E025A02860167017202C8
:1049E0005E023F02002F40F0C980C4EB060805EBD1
:1049F0008808DFF878A298F80490B9F1010F00F068
:104A0000F882C0F0E182B9F1020F41F61D5818BFDB
:104A10004FF00F0841F61D52904538D04246013BF9
:104A20000492052B42D8DFE803F0A47F689134A0FC
:104A3000321B05EB8202DFF84C82B2F8149008EBCF
:104A40000919002F40F0A580B9F80870D9F80410B2
:104A5000927D01EB8707062A00F24183DFE812F01E
:104A60005601A1018101E901D001B701B401002F74
:104A700040F08780371B05EB87073B79032B00F25B
:104A80002C83DFE813F00301DC00CD009C00002242
:104A9000C5E7341B05EB84040422E388ADF8183025
:104AA00000238DF80C20ADF81A300593704C04F1FA
:104AB000100654F8043B03A803B19847B442F8D158
:104AC000286F6A4CC0EBC00005EB80001C2200215F
:104AD0000BF0B4F86B6F43B1226F0132013B02F06F
:104AE000030263672267002B63D1624A137823F0C5
:104AF0000403137009B0BDE8F08F341B05EB840488
:104B00000222A37D2689A088E168ADF81860A3F190
:104B10000603B3FA83F35B098DF81C30ADF81A0075
:104B200005918DF80C20C1E7341B05EB84040122AC
:104B30002389A088E168ADF818300023ADF81A0089
:104B400005918DF80C208DF81C30AFE7341B05EB78
:104B500084040323E0882189E268ADF81800ADF8E9
:104B60001A1005928DF80C30A0E705238DF80C3053
:104B70009CE700238DF80C3098E706234FF00108DE
:104B800048E73C490A78012322F001020A7098465E
:104B900040E7D088B9F80A20B9F80810C71C121AE3
:104BA0003944033AA9F80810A9F80A204FF001087F
:104BB00030E70020FFF71EFB09B0BDE8F08FDFF8FB
:104BC000C8802D4AD8F800102C484FF0000908235F
:104BD000CDF8009001F00AF8294B2A495B88D8F8F3
:104BE00000E087F804901B01CA1801F8039053688D
:104BF000B8F80410C8F800300223C2F804E01181AC
:104C0000A8F8043000283FF475AF331B15F82330A3
:104C100018490A7822F001020A704FF00E08F9E6EE
:104C2000DFF864801548D8F800100023012201F055
:104C300015F802220023A8F804203B71E2E7DFF810
:104C4000448098F80030022B00F0458298F810302C
:104C5000022B00F02F82074A137843F0020323F05F
:104C60000103137041F61D580123D3E6042D0020E3
:104C7000A42D00209C2D0020940803004C2B002024
:104C8000F42C0020D42C0020942D0020C44BC54AC5
:104C90001968C54800230093082300F0A7FF0123EB
:104CA0003B71AFE7C14BBEF80220C14F03EB0212CC
:104CB0009389002B00F0CE81B94BBB4819680222C2
:104CC0009A8005223A700023012200F0C7FF804637
:104CD000B8F1000F3FF40EAF1C2303FB04F3EB5CB1
:104CE00098E6DEF80420AE48538887880168AE480D
:104CF00001EB87010333002700979BB203279B003A
:104D00008EF8007000F072FF8046E1E7C4EB060801
:104D10004FEA8808002305EB080E39460093022766
:104D20000EF1040204238EF816709F48A14F00F084
:104D30005DFF00283FF4DEAE17F808304FF00E0894
:104D4000311B05EB8101B9F80A20C888B9F80810B1
:104D5000C71C121A3944033AA9F80810A9F80A2006
:104D600058E6C4EB06084FEA880805EB08031A4624
:104D700019698D48DFF83CA2002907F108010CBF32
:104D8000012703279F75002300930C32042300F0B2
:104D90002DFF00283FF4AEAE1AF808304FF00E0891
:104DA000CEE7C4EB06084FEA8808032B05EB080E94
:104DB0004FF0000307F1040100930CBF05270627FD
:104DC0000EF108020423AEE741F61D58B8E77A4B0E
:104DD0007A4A1F8851687448794A00230093042353
:104DE00000F004FF002840F02C81341B05EB840503
:104DF00008EB071806220123AA7588F80E3079E619
:104E0000C4EB06084FEA880805EB08026B4B926971
:104E10001A606949DFF89CA1002218465A60FFF722
:104E20001DF900287FF472AF1AF808304FF00A0815
:104E3000F0E5C4EB06084FEA880805EB080E0021F0
:104E4000BEF80630DEF8102000919B0007F10C013F
:104E5000012768E7524B534A1968534800230093CF
:104E6000CEF8043007238EF80030082300F0BEFE91
:104E700080462DE74A4ADEF80410938849880B449F
:104E80000333022193808EF80010FFF785F88046E7
:104E90001EE7BEF80230DFF814811B01984406209B
:104EA0000023D8F80410474A00938EF80000082326
:104EB0003D4800F09BFE80460AE706234FF00F08AE
:104EC000A8E53A4BBEF808101A781B7CB2FA82F2B9
:104ED0005209B3FA83F35B09013100208EF80A20EE
:104EE00001228EF80B30AEF808108EF80C008EF808
:104EF00000209EF80A302E4A43B12C498B890020AD
:104F000090721BB98A7B002A40F0CB809EF80B3050
:104F1000274A43B1254B998B0020D07219B99B7F4A
:104F2000002B40F0BD80331B002215F823308EF893
:104F30000020AEF80220CEF8042041F61D5869E5A5
:104F40009EF80030072B3FF640AD01A252F823F047
:104F5000C34E0200CB490200CB490200754E02004D
:104F6000794F0200554E0200554E0200714F02006B
:104F700001238EF80030BCE7BEF80230DFF82C8049
:104F8000074A1B0108EB030011684768B2F804C028
:104F9000416002211760A0F808C091807EE700BF41
:104FA000942D00208C0803004C2B0020D42C0020D2
:104FB000F42C0020042D00207C2D0020802D0020CA
:104FC0008808030094080300D8F80C30049703A85D
:104FD0000DF10A0105970393FFF740F8002845D12A
:104FE0004FF00A08331B9B00EA180221EB5C117199
:104FF00014E5444B1B789B0707D4394608224248E6
:105000000AF01CFE4FF0020866E6DFF8FCB008F17B
:1050100006005B4603AA3946FFF78CF88046002855
:1050200060D100970499394A3948BBF804700423C9
:1050300000F0DCFDB8B9374B03EB071383F80E9093
:1050400058E5331B9B00EA180621EB5C91754FF085
:105050000E0875E651682E48012200F0FFFD04237A
:1050600080463B7034E64FF00E0835E60499274A37
:105070008B88A8F80630B1F800E025480097042393
:10508000A8F808E0BDF80A7000F0B0FD78B9214B2F
:1050900003EB071301210222997388F8042029E504
:1050A0000123AEF80230FEF777FF804610E64FF09E
:1050B0000E0897E701273F0108EB07034FF00009AF
:1050C0005968154ACDF800900823114800F08EFD6C
:1050D00008F8079096E50027EDE7012398E54FF0E3
:1050E0000F082DE63946584608220AF0A7FD1C2372
:1050F00003FB04F3B8F10A0F08BF41F61D581AF874
:10510000033087E49C2D00208C2D002088080300AC
:105110004C2B0020D42C002094080300074A13785D
:10512000042B09D010B4591C054C117044F823000D
:1051300000205DF8044B70470C207047D12C0020F4
:10514000A42D00202DE9F04FAE4D2A788BB000231E
:105150009607069305930793089309930DD5AA4CD8
:1051600004F1100554F8043B05A803B19847A54283
:10517000F8D100200BB0BDE8F08FD407F9D442F08D
:1051800001024FF010232A704FF080525B691169C1
:1051900052699E4C581C08BF02FB01F323619C49D5
:1051A000A3F5405320460022E36000F017FD0028DD
:1051B000E0D1E268974B019002F53F5B0BF13C0BAD
:1051C000D3F800E0CDF800B0043A80464FF6FF7700
:1051D00083465168904CA14202F1040352D002F57B
:1051E000805402E0944200F0F78052F8041F01312D
:1051F000F8D04FEA08138949032208F10108CA547C
:105200001FFA88F8009B9C422246E2D1D94600282A
:1052100040F017815FFA89F30B2B0FD8DFE813F00A
:10522000C0000C00C0000C000E00D900C800D9005E
:105230000E00C500C200C50000230293784A516FDA
:1052400003290ED8136F0B4403F00303C3EBC3030E
:105250009B00D0180124D45401319DF8083003710B
:1052600051672B78674903F0040202F0FF04002A1B
:105270007FF47FAF43F0040320460B70FEF7BAFFC4
:10528000204677E79168674CA14235D00134A142AE
:10529000A5D1019900296DD1634C23604FF0020C18
:1052A000A4F804C0D168013103F5805603F1080366
:1052B00003D1C4E01968013114D09988B94206D0ED
:1052C000198821B19968714501D98E460120598804
:1052D00003318C4403EB81031FFA8CFC9E42A4F83B
:1052E00004C0E7D8BCF1020F14BF082304234BEA23
:1052F000030B02F5805485E748494FEA081901EB92
:10530000090C4FF0000A01F809A00224CCF804307F
:10531000ACF80840D668013603F5805302F10C0161
:1053200012D11AE08E68764501D9B64601204E8822
:105330000336344401EB8601A4B28B42ACF808403A
:105340000BD90E68013608D08E88BE4202D00E8876
:10535000002EE7D14FF0010AE9E7304B994408F1FC
:10536000010889F80EA01FFA88F84BF0020B02F52D
:10537000805447E729494FEA08140E192A49096859
:10538000039126494FF0020C01F804C008F101080E
:105390000399254C71601FFA88F8A6F808C07CE7CD
:1053A0000B20E7E60223029348E70323029345E735
:1053B0002B78154C43F0020323F001032B7004F10A
:1053C000100554F8043B05A803B19847AC42F8D146
:1053D000CFE60123029331E7134A126842B30F4923
:1053E0004FEA08128E18114973600C4BA1F8028025
:1053F000022108F1010C99541FFA8CF831814BF00D
:10540000010BFFE69C2D0020A42D00204C2B00203A
:10541000BC080300A02D0020DEC0ADDED42C00208F
:10542000042D0020FE011EF1942D0020F42C0020FC
:10543000064902220B6001238A800193DFE70423DF
:1054400055E7034BC3F800E0E4E600BF942D0020CD
:10545000A02D002060B159B130B583B00C460DF1DC
:1054600006010546FEF7FAFD20B90A2003B030BD5B
:1054700005207047BDF80620074B686803EB021350
:1054800001219A890A449A8120606B6800200C33BC
:105490006360A97203B030BDD42C002050B110B5A8
:1054A00082B00DF106010446FEF7D8FD20B90A20AE
:1054B00002B010BD05207047BDF80620084B03EB75
:1054C00002139A8912B9062002B010BDA17A0029F0
:1054D000F9D00021013A9A810846A172E8E700BF9D
:1054E000D42C00201E4B1B789B0702D402231846A5
:1054F000704740B1CB1C9BB240F2FD32934205D9BC
:1055000009231846704705231846704770B4154A9A
:10551000167896B95489158925441D44ADB2B5F560
:10552000806F0AD2354602EB051223445381068070
:1055300041800023184670BC7047147C094D54B953
:105540006C8B2D8B25441D44ADB2B5F5806F02D216
:1055500001263546E7E70723184670BC704700BFB1
:105560009C2D0020D42C0020124B1B789B0702D4CA
:10557000022318467047C8B10388022B02D90423BE
:105580001846704710B40C49448801EB03135A893C
:10559000111B03290CD4033A0021121B5A810B461C
:1055A0000180418018465DF8044B70470523E0E711
:1055B0000423F7E79C2D0020D42C00202DE9F04F88
:1055C000404D2C78A20785B003D4022005B0BDE879
:1055D000F08F51B10A884FF6FF739A4201D04B8881
:1055E0002BB9042005B0BDE8F08F0520EEE74B682D
:1055F0009B0701D00320E9E7B1F808800E46074673
:105600000DF10E014046FEF797FC0028DED12E4B2F
:105610002E4ABDF80EC0516F1A68D6F8049002F1F8
:10562000010E0329C3F800E037D8284B274A1B6F27
:10563000B6F800A076880B4403F00303C3EBC30362
:105640009B0002EB030B4A1C0192204A0221D15419
:105650000023CBF818301D4B019AABF80460ABF86F
:105660000680ABF808A0ABF80A00CBF80CE0CBF84A
:105670001090ABF814C08BF816005A6737B1144B72
:105680007860C7F800E01B89B8723B8104F004031E
:1056900003F0FF066BB1002098E70E4B03EB0C1CE8
:1056A0000820BCF80A30033BC8EB0308ACF80A80BA
:1056B0008CE7304644F004042C70FEF79BFD304626
:1056C00084E700BF9C2D0020A02D0020042D002089
:1056D000F42C0020D42C002052B12DE9F04F3F4C87
:1056E00023789D0783B005D4022003B0BDE8F08F76
:1056F0000520704781B10D884FF6FF76B54201D085
:105700004E881EB9042003B0BDE8F08F496811F03F
:10571000030703D00320E8E70520E6E7DFF8C8B079
:10572000DFF8C8E0B2F80090DEF874C0B2F802808A
:10573000DBF80020BCF1030F02F1010ACBF800A056
:1057400037D8DEF87020624402F00302C2EBC202D6
:1057500092000EEB020B00920CF101020192009AF2
:105760004FF0020C0EF802C00022CBF81820019A6C
:10577000ABF80460ABF80680ABF80850ABF80A70E1
:10578000CBF80CA0CBF81010ABF814908BF8167077
:10579000CEF8742030B1124A4760C0F800A01289D8
:1057A0008772028103F0040202F0FF056AB1002053
:1057B0009BE70C4B03EB09190820B9F80A30033BAF
:1057C000C8EB0308A9F80A808FE743F004032846D2
:1057D0002370FEF70FFD284687E700BF9C2D0020B1
:1057E000F42C0020D42C0020A02D0020042D00201B
:1057F00050B12DE9F04F444F3E78B20787B005D441
:10580000022007B0BDE8F08F0520704779B10A8803
:105810004FF6FF739A4201D04B881BB9042007B0A2
:10582000BDE8F08F4B689B0703D00320E9E7052014
:10583000E7E7B1F8088004460D4640460DF1160131
:10584000FEF77AFB0346002848D1304A3049BDF8BC
:1058500016C0D1F874E01168D5F8049001F1010A7E
:10586000BEF1030FC2F800A041D8294A2988126F5F
:10587000029222680192029A0391724402F003029A
:10588000C2EBC20222496D8892004FF0030B01F86F
:1058900002B00A444FF0040B95800199BDF80C50FA
:1058A00015819161A2F806805081C2F80CA0C2F85F
:1058B0001090A2F814C082F816B0154A0EF1010E2D
:1058C000C2F874E0134A6060C4F800A01189A072A5
:1058D00006EA0B02218102F0FF040AB1184690E7A4
:1058E00046EA0B063E70FEF785FC204689E70A4B28
:1058F00003EB0C1C0820BCF80A30033BC8EB030880
:10590000ACF80A807DE700BF9C2D0020A02D002070
:10591000042D0020F42C0020D42C0020F8B5184AC7
:105920001378990701D40220F8BD4FF6FF71884221
:1059300019D0144D6C6F032C17D8296F214401F036
:105940000301C1EBC10189006F18661C05246C546A
:10595000012403F004013C71F88001F0FF046E673C
:1059600029B10020F8BD0420F8BD0820F8BD43F09F
:10597000040320461370FEF73DFC2046F8BD00BF2F
:105980009C2D0020042D0020F8B5154A13789907A6
:1059900001D40220F8BD134C606F032816D8216F84
:1059A000114D014401F00301C1EBC1012E7801301A
:1059B000062704F8217060670EB10121297303F0F6
:1059C000040101F0FF0419B10020F8BD0820F8BD62
:1059D00043F0040320461370FEF70CFC2046F8BD8C
:1059E0009C2D0020042D0020F42C002010B50C4C20
:1059F00082B0ADF806002078ADF80410810702D41B
:105A0000022002B010BD3AB133B101A90DF1060078
:105A1000FEF790FB02B010BD052002B010BD00BF24
:105A20009C2D002000B50D4B83B0ADF80600187812
:105A3000830703D4022003B05DF804FB51B14AB1DF
:105A4000134600200A460DF10601FEF773FB03B072
:105A50005DF804FB052003B05DF804FB9C2D0020DD
:105A600000B50D4B83B0ADF806001878830703D45A
:105A7000022003B05DF804FB51B14AB113460DF1A9
:105A800006000A460021FEF755FB03B05DF804FB53
:105A9000052003B05DF804FB9C2D002020B119B156
:105AA00003680B60002070470520704710B504782C
:105AB000012C82B00BD0022C1CD034B902A80323D5
:105AC00000F8083D124B1B68984702B010BD4368B0
:105AD0001049114804228DF800201B788DF80430FD
:105AE000224601F0EDFA0D4A094B14701B68684616
:105AF0009847EAE7C36807490748019301228DF8F0
:105B0000004001F0DDFA024B68461B689847DCE76D
:105B1000B42D0020B82D0020682A0020B92D0020C7
:105B20002DE9F041274D284E804617469C460FCD63
:105B30008AB002AC0FC495E80F0098F810E098F80E
:105B4000115037601EF1000E84E80F0018BF4FF0AF
:105B5000010ED8F80430D8F80C70D8F8086001931A
:105B6000002D14BF0E200020D8F81430174DD8F89F
:105B700000408DF824C08DF81D0008934FF0000CF4
:105B80008DF81CE00497059602A90394104A019B26
:105B90001048029385F800C001F07AF958B9D8F896
:105BA0000030013307D09DF825303BB101220A496E
:105BB000084801F085FA0AB0BDE8F081054801F017
:105BC00037FBF3E79C080300B42D0020B92D00201B
:105BD000AD5A0200682A0020B82D002020B119B16A
:105BE00001600B68114618470E2070472DE9F043FD
:105BF000DDF81C8050B14AB1D0F800E0BEF1000FD2
:105C000007D01E4643B90920BDE8F0830E20BDE849
:105C1000F0830820BDE8F0834768D7F80490B3FB11
:105C2000F9F709FB1737002FEDD142EA0104A40769
:105C300002D01020BDE8F083C468A142F9D301F17D
:105C4000FF3C04696644A642F3D8CDF81C80DEF818
:105C50000C40A446BDE8F043604700BF28B1F0B552
:105C6000066876B11AB90920F0BD0E207047476862
:105C7000D7F800C00CF1FF370F428E4603D010203A
:105C8000F0BD0820F0BDC768B942F8D301F1FF3E6E
:105C900004690CFB02E5A542F1D83469A446BDE8CD
:105CA000F040604770B528B103681BB15B69BDE87F
:105CB000704018470B4C0C4B0C4D1B1BA5FB0335C0
:105CC0002D090CD005EB850504EB850523682046DE
:105CD000143413B15B69984718B9AC42F6D100206F
:105CE00070BD70BD4C2B0020602B0020CDCCCCCCE7
:105CF00029DF704728DF704700207047024B586F3C
:105D0000003018BF01207047C42D002008B5104690
:105D10001A4609F088FF002008BD00BF38B50B4DBA
:105D20000B4B436004220021284609F087FF09F04D
:105D300063FE084CE87004222046002109F07EFF33
:105D4000054B002020676067186038BDC02D00201B
:105D5000D4080300C42D0020BC2D0020012809D840
:105D6000054B1A780121997012B95878484070474C
:105D70000020704701207047C02D0020F0B57A4CFC
:105D800023788FB083B1794D296F0228C1EBC1010F
:105D900005EB810135D003282CD0A378724A5BB182
:105DA00009F01AFE0FB0F0BD6278002AF5D06370DA
:105DB000A3786D4A002BF3D16C4D6B6F002BF1D0A3
:105DC0002E6FF700BB1B05EB8303012019791070C0
:105DD000002936D081427FD1D8681B691844FFF76B
:105DE00089FF00286FD0112876D10022012322706C
:105DF0006370D7E75E4E33680133082B34D83360C5
:105E0000CBE75B4A0B7900201060002B00F0888004
:105E1000012BC2D10B694A69013393420B61BCD19A
:105E20001C2206A809F0FFFE2B6F6A6F4F49013351
:105E3000013A042B6A672B6700F0928000252570D9
:105E400022E098695A69D9681B69121AB2F5805F15
:105E500028BF4FF480529208012A014438BF012222
:105E60001844FFF745FFBCE71C22002706A837604F
:105E700009F0D9FE2B6F6A6F0133013A042B6A6770
:105E80002B676BD027700D25069B9B68002B84D059
:105E900014226846002109F0D1FE9DF81C30089AB2
:105EA00001950492002B51D0012B07D1099B0B9A2D
:105EB00003921B03022202938DF80020069B684682
:105EC0009B68984769E7E378002B7FF46BAF014646
:105ED0000220FFF753FF65E7BB1B9B00EC18EB5854
:105EE0009B68002B3FF45EAF142206A8002109F046
:105EF000A5FEA26823790A9203220792F3B1012B2F
:105F000007D1E368626909921B03022208938DF8A6
:105F10001820BE1B06A855F826309B68984741E715
:105F20008B694A69D01AB0F5805F94BF1B1803F5DE
:105F300080539A428B617FF430AF71E7012122696F
:105F400063698DF8181008920993E2E7DDE90A0108
:105F50000123CDE902018DF80030AFE72F6791E70B
:105F600000250D6725708FE7C02D0020C42D00206F
:105F7000BC2D0020F0B5334C636F87B0BBB1256FEB
:105F8000314FEE00731B04EB830301211A79397042
:105F90007AB18A4229D1D8681B691844FFF7AAFE52
:105FA000D8B1112821D1002201233A707B7007B0AB
:105FB000F0BD98695A69D9681B69121AB2F5805FF9
:105FC00028BF4FF480529208012A38BF01220144B1
:105FD0001844FFF78DFE0028E3D1FB78002BE6D1B3
:105FE00001460220FFF7CAFEE1E7731B9B00E7189A
:105FF000E3589B68002BDAD0142201A8002109F095
:106000001DFEBA683B790592032202928BB1012BE7
:1060100007D1FB687A6904921B03022203938DF86F
:106020000420751B01A854F825309B68984707B0D9
:10603000F0BD01213A697B698DF804100392049345
:10604000EFE700BFC42D0020C02D00202DE9F04750
:106050001C4DD5F874E0BEF1040F27D02C6F7444AA
:10606000032C88BF043CC4EBC404A40005EB040A61
:106070001E4617460EF10103884681461C22002168
:1060800050466B6709F0DAFD0F4B08991A7845F80E
:1060900004904FF0000ECAF80810CAF81080CAF831
:1060A0000C70CAF814608AF804E012B17046BDE8BA
:1060B000F0875C780CB19646F8E7FFF75BFFA646E1
:1060C000F4E700BFC42D0020C02D00202DE9F04FC3
:1060D0001F4DAC7883B024B10824204603B0BDE83E
:1060E000F08FDFF870B0DBF87440042CF5D0DBF8EB
:1060F000707001922744032F88BF043FC7EBC70786
:10610000BF000BEB07080E46824601341C224046B6
:1061100000219946CBF8744009F090FD2C78019B42
:10612000C8F81430360B01224BF807A0C8F80890C5
:10613000C8F80C6088F80420054B0CB10024CCE7AB
:106140005D78002DC9D1FFF715FF2C46C5E700BFCC
:10615000C02D0020C42D0020F0B5012887B003D049
:10616000032801D007B0F0BD354C364B626FA0F16B
:106170000100B0FA80F040090021D8709970002A1F
:10618000F0D0266FF700BD1B04EB850501212A79AD
:1061900019707AB18A4220D1E8682A691044FFF761
:1061A000A9FD00283CD0112817D100210122197027
:1061B0005A70D7E7A8696A69E9682D69121AB2F5B9
:1061C000805F28BF4FF480529208012A014438BFF3
:1061D00001222844FFF78CFDE3E7BB1B9B00E51879
:1061E000E3589B68002BBDD0142201A8002109F0C0
:1061F00025FDAA682B79059203220292C3B1012BD7
:1062000007D1EB686A6904921B03022203938DF89D
:106210000420BE1B01A854F826309B689847A1E7CC
:10622000DB78002B9ED101460220FFF7A7FD99E7FE
:1062300001212A696B698DF8041003920493E8E741
:10624000C42D0020C02D002001600B6843604A6807
:10625000934204BF00234360704700BF426842B1CD
:1062600001688B68134443604A68934204BF00236B
:106270004360704710B40023012401E0202B0AD0B2
:1062800004FA03F2024299B203F10103F6D0084680
:106290005DF8044B70474FF6FF705DF8044B704794
:1062A00098B191B130B40238002402E00134202CBE
:1062B0000AD030F8025F9542F8D13BB10A68012359
:1062C00003FA04F414430C6030BC70470B680122DD
:1062D00002FA04F423EA04030B60F5E770B49DF8B6
:1062E0000C60C0B1B9B1B2B10238002402E001348F
:1062F000202C10D030F8025F9D42F8D1012303FA20
:1063000004F401EB820246B9E4430B68234041F8F0
:10631000043B9142F9D170BC70470B68234341F8AC
:10632000043B8A42F7D00B68234341F8043B8A427E
:10633000F3D1F0E798B110B40238002302E0013342
:10634000202B0DD030F8024F9442F8D1012202FAEE
:1063500003F30B4214BF104600205DF8044B704756
:106360000020FAE7F0B491B100252B46012606FA89
:1063700003F4144205D000EB450431F81370A780F4
:1063800001350133202BF2D10560F0BC70470D467A
:106390000560F0BC704700BF064A4FF0A043105C98
:1063A000D3F8043523FA00F000F0010080F001007A
:1063B000704700BFE0080300044B195C4FF0A04297
:1063C00001238B40C2F80C35704700BFE008030082
:1063D000044B195C4FF0A04201238B40C2F80835F2
:1063E000704700BFE00803004FF0A04310B44FF423
:1063F00080204FF400344FF400214FF48012C3F892
:106400000845C3F80805C3F80815C3F808255DF862
:10641000044B70474FF0A04310B44FF480204FF46A
:1064200000344FF400214FF48012C3F80C45C3F838
:106430000C05C3F80C15C3F80C255DF8044B704728
:10644000084B4FF0A0411B5CD1F80405012202FA71
:1064500003F323EA00020340C1F80825C1F80C3514
:10646000704700BFE008030030B44FF0A0430322A0
:106470004FF400354FF480244FF400204FF4801186
:10648000C3F84427C3F84827C3F84C27C3F850275C
:10649000C3F80855C3F80845C3F80805C3F808153C
:1064A00030BC7047064A4FF0A043105CD3F810355B
:1064B00023FA00F000F0010080F00100704700BFF7
:1064C000DC0803000D2809D00E2809D00F2809D0B8
:1064D00010280CBF03204FF0FF307047002070479A
:1064E0000120704702207047014B185C704700BFC5
:1064F000DC08030058B910B5054CA36833B10CCBC8
:106500000020A2609847A368002BF8D110BD704707
:106510003C2E002010B5012882B029D022D30328B8
:106520001ED10721002000F091F802A80023264C7C
:1065300000F8013DFDF7C0FCE368013BE360E36860
:1065400053B9224B01221A604FF08042D2F818341E
:1065500013F48033FAD1A3709DF80700FDF7D4FC43
:1065600002B010BD1A4B0122C3F8802002B010BD4A
:1065700002A80023144C00F8013DFDF79DFC237890
:1065800093B9134A6360A3602361E360106810F05D
:10659000010014D009F030FA20B94FF080430122F5
:1065A000C3F8182501232370E3689DF80700013321
:1065B0000122E360A270FDF7A7FC02B010BD072125
:1065C00000F044F8E6E700BF3C2E00200C0000403D
:1065D00000E100E010B51A4B1A6882B0A2B10022A7
:1065E0001A601B6800934FF080430122154C0099FC
:1065F000C3F80823A368627033B10CCB0020A260FB
:106600009847A368002BF8D10F4B1A68AAB1002253
:106610001A601B6801934FF080430222094C0199D4
:10662000C3F8082323690122A27033B10CCB0120E7
:10663000226198472369002BF8D102B010BD00BF3A
:10664000000100403C2E002004010040002810B44E
:1066500018DB00F1604303F561434901C9B283F8D7
:106660000013C3B24009800000F1604000F56140B2
:1066700003F01F0201239340C0F8803103605DF8EE
:10668000044B7047C3B2044A03F00F04490122448B
:10669000C9B21176E6E700BFFCEC00E030B51D4C56
:1066A00094F8545083B015B1082003B030BD4FF0BA
:1066B000FF33FF220721062023636363A363E363A1
:1066C00023646364A364E36423606360A360E360A2
:1066D00023616361A361E361236284F850306362E4
:1066E000A36284F85230E36284F8533084F8512076
:1066F000FFF7ACFF084B094A1D601B680193019826
:106700004FF000430121284684F85410C2F80433A6
:1067100003B030BD502E00207C610040006000407E
:10672000034B93F85400003018BF0120704700BF9E
:10673000502E0020F0B5624C251895F93030002B12
:1067400001DB0820F0BD91F803E09446BEF1000F94
:1067500056D02368013300F0A380002508266B1C67
:10676000574F54F82320013251D0AB1C9E4245D9DB
:1067700057F8232001324AD0EB1C9E423ED957F8ED
:106780002320013243D02B1D9E4237D957F82320B6
:1067900001323CD06B1D9E4230D957F8237001372F
:1067A00035D0AB1D9E4229D954F82320444F0132E5
:1067B0002DD0EB1D9E4221D957F82320013226D03F
:1067C00005F108039E4219D957F8232001321ED043
:1067D00005F109039E4211D957F82320013216D042
:1067E00005F10A039E4209D957F8237001370ED0EC
:1067F0000B35AE4202D9E36A013307D00420F0BD65
:10680000236A013353D008250C26A8E70B2326184A
:106810005DB244F823C086F83050BEF1000F02D1BB
:10682000234483F848008B78A3B94A784FF0A046F8
:1068300000F5E073920046F82320CB78A3B9083D19
:106840002C44097894F8502042EA811284F85020B0
:106850001846F0BD830003F1A043D3F8002722F0CF
:106860000202C3F80027E8E7AB0003F1804303F519
:10687000C0430A78D3F8101521F4473121F4407150
:10688000C3F810151204000202F44031D3F8104589
:1068900000F4F8520A432243C3F810250020F0BD4B
:1068A000002385F83030C4F800C01D46BBE7082639
:1068B00085F830603346C4F820C03546B0E700BFE5
:1068C000502E0020F0B42E4D2E1882B096F93030A4
:1068D000072B1CDD2B4493F848309B09032B41D038
:1068E000012B14BF4FF440334FF40033800000F10C
:1068F000A040D0F8002722F44032C0F80027D0F89A
:1069000000271343C0F8003702B0F0BC7047DAB27A
:10691000072AF9D8980000F1804000F5C04003F143
:1069200040029200D0F8104592B202F18042002756
:1069300044F0010402F5C042C0F8104501970198E7
:1069400017600029E0D096F9302055F82220002A5F
:10695000DAD001220B4902FA03F3C1F8043302B082
:10696000F0BC70474FF0A043D3F81035C34013F08C
:10697000010F0CBF4FF400334FF44033B6E700BFB4
:10698000502E0020006000404FF0A043D3F8103597
:1069900023FA00F000F00100704700BF2DE9F0433A
:1069A00087B00026C94B01961A68012A00F00482BC
:1069B000C74B1A68012A00F0F181C64B1A68012AF8
:1069C00000F0DE81C44B1A68012A00F0CB81C34B72
:1069D0001A68012A00F0B881C14B1A68012A00F038
:1069E000A581C04B1A68012A00F09281BE4B1A683B
:1069F000012A00F07F81BD4B1A68012A00F05981FD
:106A000016F0FF0F1AD0BA4F01250024A30003F19E
:106A100080432E4203F5C0434FEA45050BD0D3F81F
:106A2000100557F82420D3F81015C0F30420C1F343
:106A3000014102B190470134082CE7D1002E02DB5E
:106A400007B0BDE8F083AA4C00224FF0FF33274681
:106A50000292039301260DF1080894F950104D1C81
:106A60002DD0C9B221F0C00006AB4FEAD00E03EB27
:106A70000E0201F0070312F80CCC06FA03F31CEA2D
:106A8000030F1CD03D18890995F9305057F825900F
:106A9000B9F1000F00F0E880032900F0E8804FEA28
:106AA000800E0EF1A04E12F8145CDEF800271D4097
:106AB000C2F3014240F0B580032A00F0A281002514
:106AC00094F95110481C2FD0C9B221F0C00006AB78
:106AD0004FEAD00E03EB0E0201F0070312F80CCCC4
:106AE00006FA03F31CEA030F1ED007EB000C89091A
:106AF0009CF930C057F82C90B9F1000F00F0C68017
:106B0000032900F0C6804FEA800E0EF1A04E12F865
:106B100014CCDEF800271CEA030FC2F3014240F058
:106B20008D80032A00F0928194F952104A1C2ED0D5
:106B3000C9B221F0C00006AB4FEAD00E03EB0E0243
:106B400001F0070312F80CCC06FA03F31CEA030F5A
:106B50001DD007EB000C89099CF930C057F82C9028
:106B6000B9F1000F00F08980032900F088804FEA16
:106B7000800E0EF1A04E12F814CCDEF800271CEAAD
:106B8000030FC2F3014265D1032A00F04C8194F94E
:106B900053104B1C2CD0C9B221F0C00006AB4FEAF9
:106BA000D00E03EB0E0201F0070312F80CCC06FA2C
:106BB00003F31CEA030F1BD007EB000C89099CF9B7
:106BC00030C057F82C90B9F1000F69D0032969D073
:106BD0004FEA800E0EF1A04E12F814CCDEF800271A
:106BE0001CEA030FC2F3014211D1032A00F0F08026
:106BF000002D3FF425AF4FF0A043019AD3F8103594
:106C000093423FF41DAF029A0193039225E7022AB3
:106C1000EED1032900F02D81B9F1000FE8D0C8476B
:106C2000E6E7022A7FF44BAF032900F02B81002511
:106C3000B9F1000F3FF444AFC84741E7022A7FF49F
:106C400073AF032900F01881B9F1000F3FF46CAF66
:106C5000C84769E7022A9AD1032900F01081B9F1E7
:106C6000000F94D0C84792E703297FF428AF18F8A3
:106C70000E501D4308F80E5011E7032987D118F86C
:106C80000EC04CEA030C08F80EC070E703297FF42D
:106C90004BAF18F80EC04CEA030C08F80EC032E7F0
:106CA0000329A5D118F80EC04CEA030C08F80EC051
:106CB0008EE700221A601B6805934FF0A043059AE7
:106CC000D3F81035019346F0004699E60061004084
:106CD00004610040086100400C6100401061004008
:106CE00014610040186100401C6100407C6100405C
:106CF000502E0020654AD2F8042317067FF57BAE9C
:106D000000221A601B680493049B46F0800672E61A
:106D10005E4AD2F8042352067FF568AE00221A605C
:106D20001B680493049B46F040065FE6574AD2F87E
:106D3000042391067FF555AE00221A601B68049368
:106D4000049B46F020064CE6504AD2F80423D006B5
:106D50007FF542AE00221A601B680493049B46F044
:106D6000100639E6494AD2F8042314077FF52FAEFE
:106D700000221A601B680493049B46F0080626E66E
:106D8000424AD2F8042355077FF51CAE00221A6050
:106D90001B680493049B46F0040613E63B4AD2F8B2
:106DA000042397077FF509AE00221A601B6804933D
:106DB000049B46F0020600E63449D1F8041311F0B2
:106DC00001011CD01E601B680493049B1646EFE56E
:106DD00003297FF421AF4FF40033DEF8002722F4BB
:106DE0004032CEF80027DEF8002701351343EDB21C
:106DF000CEF80037B9F1000F7FF411AFFBE60E4675
:106E0000D6E503297FF414AF4FF40033DEF80027F2
:106E100022F44032CEF80027DEF800271343CEF8E4
:106E20000037012504E703297FF419AF4FF400333D
:106E3000DEF8002722F44032CEF80027DEF80027E3
:106E400001351343EDB2CEF8003708E703297FF48C
:106E5000FBAE4FF40033DEF8002722F44032CEF8C8
:106E60000027DEF8002701351343EDB2CEF80037D6
:106E7000EAE64FF44033B0E74FF44033EBE74FF42A
:106E80004033D5E74FF44033C0E700BF0060004017
:106E9000F0B50579484CEE00731B04EB830383B017
:106EA000DB7E13B1082003B0F0BD0F687B1C0BD054
:106EB0004FF0A04E0123BB40CEF808350B6803F518
:106EC000E07303274EF823704B685F1C07D003F56F
:106ED000E0734FF0A0474FF0000E47F823E003683F
:106EE0008F69C3F8247591F815E00B7D07684EEAA9
:106EF0000303C7F86C350368D1F800E04F68C3F8A6
:106F00001475C3F80CE50B7D012B31D0731B9B006E
:106F10000746E01842600869E050CAB13B68097F43
:106F200026480022C3F81C21D3F81C3100933B688B
:106F3000DDF800E0C3F84421D3F844213B68019216
:106F4000019AC3F80403386840F30730FFF77EFB6B
:106F5000751B3B6804EB8504002001210422E176C7
:106F6000C3F80025E0752076A075A07603B0F0BDCB
:106F70008B685F1C07D003F5E0734FF0A0474FF01C
:106F8000000E47F823E0CB685F1C0DD001274FF0BF
:106F9000A04E07FA03F3CEF80835CB6803F5E0738B
:106FA00003274EF82370CB680768D1F808E0C7F8CC
:106FB0000835C7F810E5A9E7A82E002080000200D8
:106FC0002DE9F04103793D4DC3EBC30305EB83038A
:106FD00084B09C7D1CB1112004B0BDE8F0819C827E
:106FE00099609A7503680679C3F81C41D3F81C218F
:106FF00003680292012202999A600168F700C1F8C1
:107000001C41BA1BD1F81C31039305EB8202039B90
:10701000B2F81480938AD2F808E0D2F804C01FFABC
:1070200088F801331EF808809BB29382C1F81C8552
:10703000BCF1000F03D0204604B0BDE8F081947D80
:10704000938A9BB2A34202F1140122D2016804E0A8
:10705000938A9BB2B3F5807F03D0D1F81C31002B0B
:10706000F6D0938A9BB2B3F5807FE9D0C1F81CC1FA
:10707000D1F81C310193019BB2F81480938A1FFA56
:1070800088F801331EF808809BB29382C1F81C85F2
:10709000D6E70B889BB2B3F5807F0DD00268D2F89B
:1070A0001C31002BFBD00123D3600020BE1B05EB5D
:1070B00086050023AB758FE70F20F7E7A82E002089
:1070C000F0B50479594DE3001E1B05EB860687B029
:1070D000776827B106684FF4017EC6F808E31B1BEA
:1070E00005EB8303514EDC7D6CB11C7E44B3002F55
:1070F00000F09980036811214FF401720846C3F82B
:10710000042307B0F0BDDA75D9605C761C7604798B
:107110004FEAC40EC4EB0E0306EB8306B37E002BCE
:1071200035D0C4EB0E0305EB83035A68A2B10368A4
:107130004FF40172C3F804230021084607B0F0BDE4
:107140001A76196104794FEAC40EC4EB0E0305EBFD
:1071500083035A68002AEAD10168C1F84421D1F8B2
:1071600044210392039A0268D2F82461D2F808718C
:10717000D2F84411EFB9002947D1002EF4D0C4EB66
:107180000E0405EB84050023EB750321D5E70268A7
:10719000C2F82431D2F82411026801910199C2F891
:1071A0000831D2F8082103680292012202991A607C
:1071B000B7E7002EE3D151BBDE7DC2F808118EB1D6
:1071C000D2F808610496049E5F7EDE68D2F8182526
:1071D000F2555A7EDE7D0132D2B25A765A7E9642FE
:1071E000C1D806E0D2F808610596059ED2F81825A8
:1071F0005B7EC4EB0E0405EB84050022AB7EEA75D2
:107200006BB1036801221A6097E7002EB7D1C4EB77
:107210000E0405EB84050023EB750F218DE7036851
:1072200001225A6089E7112187E700BFA82E0020BC
:107230000379124AC3EBC30302EB83039B7EDBB9E2
:1072400010B4016883B0C1F82431D1F82441016839
:107250000094009CC1F80831D1F80811036801912D
:107260000121019C19600379C3EBC30302EB830284
:10727000917603B05DF8044B704700BFA82E002044
:1072800030B56E4AD2F8043399058BB05AD5D2F88E
:107290002431002B56D00023C2F82431D2F82431F7
:1072A00003934FF40171664B0398C2F80813997E5B
:1072B00009B901215160614902228DF81820D1F8E5
:1072C0008024C1F88024D87DD968099200228DF8E5
:1072D00020000791DA7593E812001A7606A8A047F5
:1072E000564BD3F81C21BAB1554A918A907D89B288
:1072F00081424FF00001C3F81C1161D2D3F81C1178
:1073000002910299908A918A946880B20131205C3E
:1073100089B29182C3F81C05484AD2F844317BB146
:107320000021474BC2F84411D2F84401997E0090E5
:10733000009809B101211160DA7D414B002A51D139
:107340000BB030BD3D4AD2F804335B07C8D5D2F844
:107350000831002BC4D03A4BD97D002952D00021EE
:10736000C2F80811D2F8081104910499D868597E1E
:10737000D2F8182542545A7ED97D0132D2B25A76BB
:10738000587E2F4A8842ABD1117E002943D1927E8C
:1073900012B92A4A01215160284A4FF40171C2F8FA
:1073A0000813597EDA688DF8201000240120079216
:1073B0008DF8180093E80600DC7506A890478FE763
:1073C000D3F81C310193019B0028A5D093688DF858
:1073D00018108DF820009175079306A892E80A000E
:1073E000984799E70022587ED968DA7501228DF80E
:1073F000200007918DF8182006A893E80600904712
:107400000BB030BDC2F80811D2F8080105900598FC
:10741000D2F81825B4E7D568547E1069D1750023D9
:107420000121D060137653768DF8181007958DF8EA
:10743000204092E80A0006A8984751E70020004043
:10744000A82E00202DE9F041684B1A6888B0002A68
:107450003CD1674F97F82E30002B45D1654B1A6809
:10746000002A5FD1644B1C68002C6BD17E699EB1F1
:107470004FF000480125B6FA86F2930003F58C73AD
:1074800003F1804101F5E04128FA02F2086826EA9A
:10749000020620B9002EEED108B0BDE8F081A3F5B8
:1074A0008C730C6083F0040209680491C2F38002BB
:1074B000DB088DF819208DF818308DF814503B68D2
:1074C000049A05A89847002ED5D1E5E70022484F39
:1074D0001A60196897F82E3000910099002B3AD065
:1074E00097F82F30002B4FD1444B1A68002AB5D0A3
:1074F0000021196097F82D401A687B8B0192A5B284
:10750000AB42019A3A4A4ED85FD0384B3C4A0021F0
:1075100019601B680293012302991360354B1A68A6
:10752000002A9FD000221A6008A81B68039302213A
:1075300000F80C1D3B6803993A7498472E4B1C6861
:10754000002C93D000221A601B680593059B3A74A7
:1075500008B0BDE8F081FA68786839898DF8143090
:107560000690ADF81C10002A2CD02648398B7A6082
:107570000122FB607983398102603B6805A8984746
:10758000002387F82F3065E7FB68786839898DF824
:1075900014200690ADF81C10A3B1398B7B60FA6003
:1075A00079833981E9E711895068164E5B1B9BB2DC
:1075B00089B2C91A00EB41015383C6F82C16C6F8EC
:1075C0003046A2E700233B74D7E7D3684BB10D48A0
:1075D00051830121C0F82C3682F82F10C0F83046B4
:1075E00093E70121538382F82F108EE70471004046
:1075F000C42E002010710040147100400071004042
:10760000047000400070004070B5244C94F82C3099
:1076100082B013B1082002B070BD002938D0002814
:1076200038D003781E4D2160C5F8F03543781D4AE7
:10763000C5F8F4356FF0004100232374C678C5F80F
:107640000813136011680191019942F8043C043A4F
:1076500081781268009284F82E600720012684F851
:107660002D30636184F82F3084F82C60009BFEF786
:10767000EDFF94F82E300222C5F804230BB1C5F8B3
:107680000463074B01220020C3F8002502B070BD3F
:107690000720C0E704480123C4E700BFC42E002030
:1076A0000070004004710040E408030038B51D4B31
:1076B0001A7C0AB1112038BD02F0FF040A79012AB0
:1076C0009CBF194AC2F8004500F10C0203EB4205C9
:1076D000144C2D79D5B10D4603EB4203C9792A7AB2
:1076E00019715A710446294600F092F8200100F100
:1076F000804000F5E040EB792A7AC0F81425C0F804
:1077000010352B79012B07D9002038BD94F82D5066
:10771000013584F82D50DEE7034B0122C3F8002524
:10772000002038BDC42E002000700040044B054AE4
:1077300093F82E00044B00280CBF104618467047E3
:10774000C42E00200470004000700040F0B42D4AA8
:107750002D4B1224C2F808431D7C022D82B01CD090
:107760001C7C012C1FD093F82E4058600227012565
:107770000026C2F804731D74DE601981E4B9234B3E
:10778000C2F82C06C2F830161C601B680193019BDE
:107790001560204602B0F0BC70471120C2F80443C7
:1077A00002B0F0BC7047DC688CB102231120C2F833
:1077B000043302B0F0BC704793F82D40C2F82C0699
:1077C00030465983C2F8304602B0F0BC704793F897
:1077D0002E20D860198372B90C4C23680B4A002BF9
:1077E000FBD0002313601268064B0092009AC3F886
:1077F0002C06C3F83016034B0222C3F804230020E2
:10780000C8E700BF00700040C42E00200071004097
:10781000F0B44B788E780F78CD780C794A791B01CB
:10782000360206F4E06603F0300333432D0307F01D
:1078300003061E4305F480558B792404354304F474
:10784000E024060112052C4302F4801206F1804563
:107850001B0605F5E045224303F080731343C5F88A
:107860001835CB790A7AC5F81425C5F81035F0BC5F
:10787000704700BF034B187808B18520704701227C
:107880001A707047F42E00202DE9F04F002685B0C5
:10789000194DDFF868A08346B1464FF0010805E0B6
:1078A0009DF80F00FCF730FBA54320D0F7B208FA93
:1078B00007F40DF10F008DF80F90FCF7FDFA2C4244
:1078C00006F10106ECD0DAF800300C4914EA0302A4
:1078D0000192E5D11C439DF80F008BF800700C60FD
:1078E000FCF712FB019A104605B0BDE8F08F0420AA
:1078F00005B0BDE8F08F00BFFFFF0100F82E0020AB
:1079000051B14AB10123834010B4C3F310042CB920
:1079100007205DF8044B70470E207047094C24681F
:10792000234203D108205DF8044B7047C00000F1EA
:10793000804303F5F8330020C3F81015C3F814256D
:10794000E7E700BFF82E0020012383405A0C5204C1
:107950000AB1072070472BB1054A1268134201D1C2
:1079600008207047034A0020C2F80435704700BF62
:10797000F82E002000F00140F0B590F804E0704DC2
:107980004FEACE042B1989B01B7913B1082009B036
:10799000F0BD45F83E200A78FF2A00F0C18022F0B1
:1079A00080031706049340F1B48001224FF0A046F3
:1079B0009A40C6F8082503F5E0734FF0A04203266D
:1079C00042F823604A78FF2A00F0B68022F0800354
:1079D0001606059340F1968001224FF0A0469A408A
:1079E000C6F8082503F5E0734FF0A042032642F8DD
:1079F00023608A78FF2A00F09B8022F08003120621
:107A0000069378D501224FF0A0469A40C6F8082583
:107A100003F5E0734FF0A042032642F82360CA78D2
:107A2000FF2A00F0818022F0800312F0800F4FF0D7
:107A3000A0464FF0010202FA03F2079314BFC6F802
:107A40000825C6F80C2503F5E0734FF0A042032685
:107A500042F823600368049F059E069AC3F8607588
:107A6000C3F86465C3F86825079AC3F86C250368F2
:107A70000122C3F8002503688E790A894F79C3F87B
:107A80000C75C3F80465C3F8082503684A89C3F870
:107A9000102502680023C2F800320268C2F80033E1
:107AA0000268C2F81C31D2F81C6102680496049E78
:107AB000C2F81031D2F8106102680396039EC2F832
:107AC0001431D2F8146102680296029EC2F80431A1
:107AD000D2F8042155F83E300192019A2BB100688A
:107AE000097940F30730FEF7B1FD2C440123002053
:107AF000237109B0F0BD01224FF0A0469A40C6F8AC
:107B00000C2585E701224FF0A0469A40C6F80C25C7
:107B100068E701224FF0A0469A40C6F80C254AE7D4
:107B20004FF0FF3304934DE74FF0FF33079391E796
:107B30004FF0FF33069372E74FF0FF33059358E79A
:107B4000FC2E0020F0B404680E680579C4F82065A6
:107B50008E88C4F824658E68C4F82865CE68C4F899
:107B60002C6504680E68C4F840658E88C4F84465C6
:107B70008E68C4F84865C968C4F84C15046802F0FA
:107B8000010101EB5202C4F81425DA0782B03DD49A
:107B900013F002023CD1046800290CBF08260C2611
:107BA000C4F80022D9B2244C04EBC50254F8354085
:107BB000517102251571C4B101F00402002A0DBFF4
:107BC0002A4612229224822415BF32272227B22568
:107BD000A22511F0080F1CBF3A462C4611F0100FD9
:107BE000016808BF2246C1F8002301680022C1F8DD
:107BF0000421D1F8041101911B06019917D40368DF
:107C000001211046995102B0F0BC70471022C2E722
:107C100031B102680821C2F800120C26D9B2C2E7BD
:107C200002680421C2F800120826D9B2BBE7006836
:107C3000304402B0F0BC7047FC2E002000B52B4B46
:107C4000D3F8102185B052B10021294AC3F8101190
:107C5000D3F81011537903910399590740D4234B5A
:107C6000D3F8142152B10021214AC3F81411D3F8DA
:107C70001411537902911B0702992BD41B4BD3F893
:107C80001C216AB100221A49C3F81C214A79D3F891
:107C90001C31019302F0100303F0FF00019AA3B11D
:107CA000124BD3F804216AB10021114AC3F8041120
:107CB000D3F80411136800910121009811710BB1E0
:107CC0000320984705B05DF804FB0B68002BE7D054
:107CD0009847E5E71368002BD0D002209847CDE7FE
:107CE0001368002BBBD001209847B8E700C00140C3
:107CF000FC2E00202DE9F04104792E4D6600371945
:107D0000BF0005EB070E82B09EF808301BB10820BB
:107D100002B0BDE8F081002A49D0EA514A68CEF8A5
:107D2000042042799E466AB19A0002F5A072076863
:107D300047F802E0BF58427901970133DBB29A421B
:107D4000019FF1D8804600680F4640F30730C9789C
:107D5000FEF77CFCD8F800107A78D1F8043502F0F0
:107D6000030223F003031343C1F80435D8F80010CD
:107D7000BA78D1F8083502F0030223F00303134365
:107D8000C1F80835D8F800103A78D1F810353444E5
:107D900005EB840502F00F02012023F00F031343CB
:107DA00028720020C1F8103502B0BDE8F08107202C
:107DB000AEE700BF042F00200368054A01211960C7
:107DC000037903EB430302EB830302221A72704729
:107DD000042F0020F0B407689DF81060D7F8005217
:107DE00040F201148C4025EA0404C7F800420568FB
:107DF000D5F800422343C5F800324FF480348C405C
:107E0000036846B9C3F80843036801F5A87143F84D
:107E10002120F0BC7047C3F80443F5E700B53F4BA1
:107E20001A6883B022B13E4AD2F80423D00338D472
:107E30003C4B1A6822B13A4AD2F8042391033CD44D
:107E4000394B1A6822B1364AD2F80423520340D47F
:107E5000364B1A6822B1324AD2F80423100344D4B4
:107E6000334B1A6822B12E4AD2F80423D10248D4E7
:107E7000304B1A6822B12A4AD2F80423920202D463
:107E800003B05DF804FB00221A602B4A1B680193C3
:107E900051681368019A4FF4AA70984703B05DF8CF
:107EA00004FB00221A60244A1B680193516813687E
:107EB000019A4FF4A0709847BAE700221A601E4A50
:107EC0001B68019351681368019A4FF4A270984798
:107ED000B6E700221A60184A1B68019351681368BC
:107EE000019A4FF4A4709847B2E700221A60124A30
:107EF0001B68019351681368019A4FF4A670984764
:107F0000AEE700221A600C4A1B680193516813689F
:107F1000019A4FF4A8709847AAE700BF40A101401A
:107F200000A0014044A1014048A101404CA10140F2
:107F300050A1014054A10140042F00200220FEF76F
:107F40007FBA00BF2DE9F0470D460646FEF7BAFAA4
:107F500003281ED8012D04461FD00ED3022D1AD19E
:107F60001C4B00EB40041C44657895B11A4B1B6810
:107F70007BB12846BDE8F04718471848FBF760FF7B
:107F80001449174A04EB44030B44155D9B789D424A
:107F9000EBD0BDE8F087BDE8F087DFF83880470018
:107FA0003B1808EB030218F8035053782BB9274409
:107FB00047440B4BBA781A55D7E7DFF828900748A3
:107FC0004A464FF40041FBF7E5FE0028EFD189F85F
:107FD0000060ECE7842F00203C2F0020402F002081
:107FE000382F0020352F002010B50078FEF76AFAF0
:107FF00003280BD8064B00EB40001844407828B10A
:10800000044B1B6813B1BDE81040184710BD00BFFA
:10801000842F00203C2F0020B34B1B68DB0700D4CB
:10802000704770B5B14EB24D33782C78FBB9172C30
:108030001CD8DFE814F0F10014011401630076008D
:10804000830096005D0039002C0039002C00A3004D
:10805000A800A800A800A800A800CE00DE0001012A
:10806000460018001800FEF7D5F92C7070BDA14B22
:108070001B7800203070002B00F00581FEF7A8F976
:108080000120FEF7A5F90320FEF7A2F9CFE70123AF
:1080900018463370FEF7D4F900224FF48041964819
:1080A000BDE87040FBF776BE012318463370FEF73B
:1080B000C7F9002240F6CD418F48BDE87040FBF77C
:1080C00069BE8C4B1B78002B00F0FE800020FEF771
:1080D0007FF90120FEF77CF90320FEF779F90020F3
:1080E000FEF76AF90120FEF767F915232B7070BDC2
:1080F0000020FEF761F907232B7070BD0020FEF70A
:108100004BF9002800F0D3800020FEF761F946F219
:10811000666103232B7000227748BDE87040FBF7AF
:1081200039BE0020FEF738F9002800F0C580002095
:10813000FEF74EF94FF400310423EBE70020FEF781
:108140002BF9002800F0BD800020FEF741F905233F
:108150002B70002241F69A116748BDE87040FBF78A
:1081600019BE0020FEF76CF906232B70002240F6A2
:10817000CD416148BDE87040FBF70CBEFEF74AF9FF
:108180000C232B7070BD5D48FBF75AFED4F111042F
:1081900005467BD0002879D1012C13D0C82303FBDE
:1081A00004F44FF4FA704FF400430021C3FB0401C0
:1081B0004FF47A72002308F0CDF92A4601464F4861
:1081C000FBF7E8FD0220FEF7F7F84A4B01221A7090
:1081D00070BD484B1B78002B79D00020FEF7F8F8D3
:1081E0000120FEF7F5F80320FEF7F2F812232B70BA
:1081F00070BD404B1B78002B6FD00020FEF7E8F8D5
:108200000120FEF7E5F80320FEF7E2F80020FEF774
:10821000D3F813232B7070BD364B1B78002B59D02D
:108220000020FEF7D5F80120FEF7D2F80320FEF774
:10823000CFF800232B7070BD2E4B1B78002B4FD036
:108240000020FEF7C5F80120FEF7C2F80320FEF774
:10825000BFF80120FEF7B0F814232B7070BD00208A
:10826000FEF79AF8C8B10020FEF7B2F8022C4EF2E1
:10827000666118BF4FF400312C7000221E48BDE823
:108280007040FBF787BDFEF7AFF8D0E60220FEF79F
:108290009FF8184B00221A7070BDFEF78DF843F25C
:1082A000333341F69A11022C18BF1946E4E7FEF762
:1082B00083F841F69A112CE7FEF77EF843F233314A
:1082C0003AE7FEF779F842E7FEF78EF807E7FEF7A0
:1082D0008BF88BE7FEF788F8ABE7FEF785F895E7B4
:1082E000FEF782F8B5E700BF302F0020362F0020C0
:1082F000602F0020342F0020102F0020642F00203A
:10830000FEF7D0B838B5C44B1B6813F0010401D197
:10831000204638BDC14C23780546E3B9172D00F23D
:108320007881DFE815F00B013101310169007D0032
:108330009100A5005B003500280035002800B3003F
:10834000BA00BA00BA00BA00BA00E300F6001C0195
:10835000420063006300B24B1B7800202070002BAA
:1083600000F02781FEF734F80120FEF731F80320F2
:10837000FEF72EF8D2E7012318462370FEF760F8C7
:1083800000224FF48041A748BDE83840FBF702BD0A
:10839000012318462370FEF753F8002240F6CD4122
:1083A000A048BDE83840FBF7F5BC9D4B1B78002B7F
:1083B00000F020810020FEF70BF80120FEF708F8FE
:1083C0000320FEF705F80020FDF7F6FF0120FDF77A
:1083D000F3FF954B15221A70002499E70020FDF752
:1083E000EBFF914B07221A70002491E7FEF712F879
:1083F0008D4B00241D708BE70020FDF7CDFF00287A
:1084000000F0E1800020FDF7E3FF46F26661864B55
:10841000844803241C700022BDE83840FBF7BABC36
:108420000020FDF7B9FF002800F0DC800020FDF7F8
:10843000CFFF4FF400317C4B7A4804241C7000229B
:10844000BDE83840FBF7A6BC0020FDF7A5FF0028DB
:1084500000F0CD800020FDF7BBFF734B7148052471
:108460001C70002241F69A11BDE83840FBF792BC1F
:108470000020FDF7E5FF6C4B6A4806241C700022C3
:1084800040F6CD41BDE83840FBF784BCFDF7C2FFA4
:10849000654B0C221A7000243AE76448FBF7D0FCC5
:1084A0000446D5F1110000F08780002C40F0848054
:1084B000012814D0C82505FB00F54FF400434FF404
:1084C000FA700021C3FB05014FF47A72002308F013
:1084D00041F8224601465548FBF75CFC0446022061
:1084E000FDF76AFF4E4B01221A7011E74C4B1B78C7
:1084F000002B00F082800020FDF76AFF0120FDF7CD
:1085000067FF0320FDF764FF474B12221A70002417
:10851000FEE6434B1B78002B75D00020FDF758FF7B
:108520000120FDF755FF0320FDF752FF0020FDF766
:1085300043FF3D4B13221A700024E9E6384B1B78A9
:10854000002B5DD00020FDF743FF0120FDF740FF29
:108550000320FDF73DFF344B00241C70D8E6304B60
:108560001B78002B52D00020FDF732FF0120FDF7D1
:108570002FFF0320FDF72CFF0120FDF71DFF2A4BE5
:1085800014221A700024C3E60020FDF705FFF8B19D
:108590000020FDF71DFF022D4EF2666118BF4FF45B
:1085A0000031214B1F481D700022BDE83840FBF709
:1085B000F1BBFDF719FFB1E60220FDF709FF184BEB
:1085C00000221A70A4E6FDF7F7FE41F69A111EE7A5
:1085D000FDF7F2FE43F2333341F69A11022D18BF34
:1085E0001946DEE7FDF7E8FE43F2333123E7FDF7F6
:1085F000E3FE32E7FDF7F8FEE5E6FDF7F5FE83E77B
:10860000FDF7F2FEA7E7FDF7EFFE8FE7FDF7ECFEC3
:10861000B2E700247CE600BF302F0020362F002078
:10862000342F0020102F0020602F0020642F002006
:10863000F0B5204A204B1060044610F0020083B0D1
:10864000196013D01D4B1E480E210F27102611252F
:10865000197040F266620421DF709E715D72FAF754
:10866000B9FEA0B1E3071DD403B0F0BDE20719D4F1
:10867000144A15480021FBF77BFB0028F4D1134A6C
:108680001348012103B0BDE8F040FBF771BBFAF7D6
:10869000F9FE0028E6D101460E4A0F48FBF768FBB9
:1086A000E10703D50190FDF7DFFE01980028DFD038
:1086B00003B0F0BD302F00203C2F0020842F00207D
:1086C000F008030019800200EC0803003D7F02005F
:1086D00010090300E97F0200E8080300032801D91C
:1086E00007207047012A12D0012917D008D3022988
:1086F000F6D10D4B00EB4000034400205A70704748
:10870000094B00EB4000034400209A707047012998
:1087100001D00022E8E700F10E02D2B200EB4003E4
:1087200001490020CA547047842F002008B5FDF786
:10873000DBFE800000F1A0430020D3F8002722F4E4
:108740004032C3F80027D3F8002742F44032C3F880
:10875000002708BD10B50388102B08D0112B05D1B8
:10876000264B18680138186038B110BD10BD234C75
:10877000216881B10131216010BD01220221FFF782
:10878000ADFF48B3072827D01D4B1B68002BECD04A
:10879000BDE81040184701220846FFF79FFF48B187
:1087A000072807D0164B1B6803B198472168013191
:1087B000216010BD072202210120FFF78FFF08B1C1
:1087C0000728EFD1042202210020FFF787FF0028AD
:1087D000ECD00728E6D1E9E7072202210120FFF7C4
:1087E0007DFF08B10728CFD1002108460A22FFF7F4
:1087F00075FF0028B9D00728C6D110BD942F0020DE
:10880000902F002008B50020FFF790FF10B1062838
:1088100000D008BD0120FFF789FF0028F9D0062805
:1088200008BF002008BD00BF194B10B5186031B15A
:1088300001200C46FFF764FD30B102232370154B75
:10884000186848B1002010BDFFF75AFDE8B9114B78
:10885000207018680028F5D101220221FFF73EFFA1
:1088600008B10728EFD1072202210120FFF736FFC8
:1088700008B10728E7D1002108460A22FFF72EFF9A
:108880000028DFD00728DED1DCE70B232370D6E7F2
:10889000902F0020942F002076DF70477ADF7047FA
:1088A0007CDF70478FDF7047A8DF704766DF704757
:1088B00032DF70473EDF7047014B01221A7070476C
:1088C00000320020704700BF704700BF704700BFF4
:1088D000FAF7EEBD10B50388212B84B0044649D0C9
:1088E00007D9512B23D0562B13D03B2B11D004B0DA
:1088F00010BD102B33D0112B13D0012BF7D1808852
:108900000021FFF7D3FF0028F1D0FAF7D1FD04B022
:1089100010BDA0881321FFF7BFFF0028F5D104B0D8
:1089200010BD0020FFF7EEFC0028E0D0EDE78379D2
:10893000002BDCD0827B043A022AD8D8022B0CBF51
:10894000022201224FF4C17380888DF8002069460D
:10895000ADF80430FFF7A8FF0028C8D0D5E70720FE
:10896000FFF7D0FC08B1FAF7A3FD084BA2881A80E4
:1089700004B010BD002380888DF8003069468DF862
:108980000130FFF78FFF0028B1D0BEE7782A002022
:1089900008B5037803B108BD054B3B211888FFF7E4
:1089A0007BFF0028F7D0BDE80840FAF781BD00BF83
:1089B000782A0020072808B51CD00A280ED00428E1
:1089C00000D008BD154B13211888FFF765FF30F064
:1089D0000803F6D0BDE80840FAF76ABD0020FFF7AB
:1089E00091FCB8B9FFF70EFF88B9FFF761FF0028C7
:1089F000F0D108BD094B1A884FF6FF739A42E0D1B7
:108A0000074801F0ADFE30F00803DAD0E2E7FAF7EC
:108A10004FFDEAE7FAF74CFDE4E700BF782A0020B3
:108A2000F4300020037803B1704710B5042192B0F0
:108A300004464068FEF78AFE00282BD1616822892F
:108A4000B1F90600B1F900300290B1F904000190CB
:108A5000B1F90210009105A8104907F0F7F805A92F
:108A6000C2B20F48FEF7ACFA63680E48198800F0EE
:108A7000EBFE63680B48598800F024FF63680948DF
:108A8000998800F0A3FE63680648D98800F060FE6C
:108A900012B010BDFAF70CFDD0E700BF6809030063
:108AA000702A0020C83000200B78042B0ED110B59E
:108AB00000F004FC064B040EC0F30741C0F307228C
:108AC000C0B21C8059809A80D88010BD704700BF0A
:108AD000982F002000B50378043B83B00A2B0ED8F2
